:020000040000FA
:08000000803102288731ED2F49
:10000E000834640080010131890B09280034410154
:10001E002B084001DF0041012A084001DE004101AA
:10002E0029084001DD00410128084001DC00E00103
:10003E008F31442780314001EB006B08EF006F08D1
:10004E00043E8600870181010430EB006B08F60048
:10005E0001308B313C23803140016F08F600FF39AF
:10006E00031D0030F7008A315822803141012308E8
:10007E004001DF00410122084001DE00410121085C
:10008E004001DD00410120084001DC00E0018F311C
:10009E00442780314001EB006B08EE006E08043EF1
:1000AE008600870181010A30EB006B08F6000130F3
:1000BE008B313C23803140016E08F600FF39031D61
:1000CE000030F7008A315822803141012708400163
:1000DE00DF00410126084001DE00410125084001F4
:1000EE00DD00410124084001DC00E0018F3144278E
:1000FE0080314001EB006B084101AE002E08043E3A
:10010E0086008701810103304001EB006B08F60089
:10011E0002308B313C23803141012E08F600FF392D
:10012E00031D0030F7008A31582280310800BF309D
:10013E004001C3008030C2000030C1000030C0005A
:10014E003D30A9001C30A800A730A700F830A6004B
:10015E0002308A319422803170084001D400710837
:10016E00D500D601D7015708F8005608F7005508F4
:10017E00F6005408F50000308E319726803178084D
:10018E004001AD007708AC007608AB007508AA00F8
:10019E0085319625803140012908C7002808C60000
:1001AE002708C5002608C40083315E238031400134
:1001BE0043084101AB00400142084101AA00400141
:1001CE0041084101A900400140084101A8003B300F
:1001DE004001A9009E30A800C230A7007B30A600C7
:1001EE0005308A319422803170084001D4007108A4
:1001FE00D500D601D7015708F8005608F700550864
:10020E00F6005408F50000308E31972680317808BC
:10021E004001AD007708AC007608AB007508AA0067
:10022E00853196258031400129084101A700400102
:10023E0028084101A600400127084101A500400100
:10024E0026084101A4003E304001A900F830A80064
:10025E000F30A700E030A60001308A3194228031A1
:10026E0070084001D4007108D500D601D701570897
:10027E00F8005608F7005508F6005408F50000304F
:10028E008E319726803178084001AD007708AC009A
:10029E007608AB007508AA0085319625803140019D
:1002AE0029084101A300400128084101A200400194
:1002BE0027084101A100400126084101A0000800C5
:1002CE004001C0002C30B4003408BB00452B253053
:1002DE00450603197329742980294508B40040087E
:1002EE0086008701340881000130B4003408C0074D
:1002FE00452BC101C201BA012A0884002B088500D2
:10030E0000088931E0218131031C8E298F29C229F1
:10031E004001C101C2010A30F0000030F10040017D
:10032E004208F3004108F2008A31752281317108CA
:10033E004001C2007008C1002A0884002B08850005
:10034E000008D03EB400FF3003180030B50034086A
:10035E00C1073508C23D0130AA070030AB3D2A085F
:10036E0084002B08850000088931E02181310318B3
:10037E00C129C229922940012A0884002B08850030
:10038E0012002E3A031DCC29CD29052A0130AA07C9
:10039E000030AB3DC301C401F8290A30F000003033
:1003AE00F10040014408F3004308F2008A3175223F
:1003BE00813171084001C4007008C3002A0884000E
:1003CE002B0885000008D03EB400FF300318003023
:1003DE00B5003408C3073508C43D0130AA07003004
:1003EE00AB3D2A0884002B08850000088931E021E6
:1003FE0081310318032A042AD4290F2AC301C40108
:10040E000F2A3A160F2AC030B4003408BA042F2A25
:10041E0040012B08B5002A08B400AA0A0319AB0A3A
:10042E0034088400350885000008C500B600B70101
:10043E003708003A0319242A452B3608003A0319C7
:10044E00592B6C3A0319082A193A03190A2A452B13
:10045E003A1E322A332A432A3B0886008701403F40
:10046E00BC00413FBD00423FBE00433FBF000430D1
:10047E00B4003408BB07542A3B0886008701403F6E
:10048E00B400413FB5003408BC003508BD00BE01C4
:10049E00BF010230B4003408BB0743084404031DF7
:1004AE00592A5A2A662A3F083E043D043C04031D7D
:1004BE00612A622A662A0130C3070030C43DC50195
:1004CE00C50A4508B400B501B435B50DB435B50D42
:1004DE000030340784008830353D8500003FB6007B
:1004EE00013FB700023FB800033FB90039083F0291
:1004FE00031D8B2A38083E02031D8B2A37083D0246
:10050E00031D8B2A36083C0203188E2A8F2A902A46
:10051E009A2A0130B4003408C5070A304506031D77
:10052E00992A9A2A682A4408803A803C031DA12AF7
:10053E00430845020318A42AA52AAB2A4001430802
:10054E00B4003408C500C12A40014408803AB40002
:10055E0080303402031DB52A450843020318B82A19
:10056E00B92AC12A40014508B400B5013408C300B8
:10057E003508C40040014208803A803C031DC92A58
:10058E00410845020318CC2ACD2AD62A4001450837
:10059E00B400B5013408C1023508C23BD92A400166
:1005AE00C101C201410842040319DE2ADF2A392B98
:1005BE002030B400400886008701340881000130E5
:1005CE00B4003408C007FF30C107FF30C23D4108F8
:1005DE004204031DF32AF42ADF2A392B0030A3002C
:1005EE000030A2000030A1000A30A00044088500AF
:1005FE00430884008435850D8435850D00308407CD
:10060E008830853D003FF000013FF100023FF200CF
:10061E00033FF3003F08F7003E08F6003D08F500E3
:10062E003C08F4008C31B524813173084001A700D9
:10063E007208A6007108A5007008A4008C3113245E
:10064E00813140012008303EB4003408C500450811
:10065E00B400400886008701340881000130B400E0
:10066E003408C007FF30C307FF30C43D430A031DE3
:10067E00442B440A031D442B452BF52A2B08B500A9
:10068E002A08B400AA0A0319AB0A340884003508F4
:10069E0085000008B6003608C5004508031D582B16
:1006AE00592B6E2940088600870181010800400100
:1006BE0043088039C8004808D0004335C8004808B0
:1006CE00D200C21F6B2B6C2B6D2B521452080319C8
:1006DE00712B722B822B520A031D762B772B7F2BBD
:1006EE000030C3000030C2000030C1000030C00036
:1006FE00C217C3018A2B0030C3000030C200003085
:10070E00C1000030C00047088039C8004808D10039
:10071E00510850060319942B952B962B50174735DD
:10072E00C8004808D100C61F9D2B9E2B9F2B51142D
:10073E0051080319A32BA42BB42B510A031DA82B6C
:10074E00A92BB12B0030C7000030C6000030C50009
:10075E000030C400C617C701BC2B0030C7000030E4
:10076E00C6000030C5000030C40052085102031804
:10077E00C12BC22B062C501FC52BC62BCA2B80306B
:10078E00C8004808D0065208C8004808D3005108CF
:10079E00C8004808D2005308C8004808D1004008D5
:1007AE00C8004808D3004408C8004808C0005308D1
:1007BE00C8004808C4004108C8004808D3004508CE
:1007CE00C8004808C1005308C8004808C5004208C0
:1007DE00C8004808D3004608C8004808C20053089D
:1007EE00C8004808C6004308C8004808D300470898
:1007FE00C8004808C3005308C8004808C700D30102
:10080E005108C800C9014908CB0052084802CA0065
:10081E00031CCB034B08803ACC0080304C02031DE6
:10082E001A2C1A304A02031C1D2C1E2C562C400169
:10083E004308420441044004031D262C282C013099
:10084E00292C0030C8004808D3000030C300003007
:10085E00C2000030C1000030C0005108C800480876
:10086E00D2005D2C531C3C2C3D2C432C53360138AE
:10087E00C8004808D300452C0310D30C401C482C4C
:10088E00492C4A2CD3170130C800C337C20CC10CF7
:10089E00C00CC80B4C2C0130C8004808D2074001D0
:1008AE0051085202031C5C2C5D2C392C501B602C01
:1008BE00612C992C5208031D652C662C6F2C003070
:1008CE00C3000030C2000030C1000030C000952DC2
:1008DE004408C0074508C13D4608C23D4708C33D10
:1008EE00431C7A2C7B2C252D531C7E2C7F2C852C87
:1008FE0053360138C8004808D300872C0310D30C98
:10090E00401C8A2C8B2C8C2CD3170130C800C3377B
:10091E00C20CC10CC00CC80B8E2C0130C80048088C
:10092E00D207252D4308803AC8004708803A48026E
:10093E00031DAB2C46084202031DAB2C4508410299
:10094E00031DAB2C440840020318AE2CAF2CE72C31
:10095E00FF30C800FF30C900FF30CA00FF30CB00A7
:10096E0040084402CC004108453BCD004208463BBE
:10097E00CE004308473BCF004C08C8074D08C93D81
:10098E004E08CA3D4F08CB3D4B08C3004A08C20073
:10099E004908C1004808C0008030C8004808D00689
:1009AE00D309D30A5308031DDD2CDE2CEF2C0130A6
:1009BE00C0070030C13D0030C23D0030C33DEF2CBA
:1009CE004408C0024508C13B4608C23B4708C33B2A
:1009DE004308420441044004031DF62CF72C212D3C
:1009EE005308031DFB2CFC2C212D0030C3000030BE
:1009FE00C2000030C1000030C000952D0130C0355E
:100A0E00C10DC20DC30D890B062DD31F0F2D102D39
:100A1E00112D4014531C142D152D182D0314D30D08
:100A2E001A2D0310D30D520803191E2D1F2D212D23
:100A3E000130D202C21F242D252D052DD101D31F29
:100A4E00292D2A2D382D53087F3903192F2D302D9E
:100A5E00332DD101D10A382D401C362D372D382D8E
:100A6E00302D510803193C2D3D2D6A2D0130C00744
:100A7E000030C13D0030C23D0030C33D431C482D07
:100A8E00492D6A2D4008C8004108C9004208CA0015
:100A9E004308CB000130CC00CB37CA0CC90CC80CB4
:100AAE00CC0B532D4B08C3004A08C2004908C100A5
:100ABE004808C000520A0319652D662D6A2D0130B3
:100ACE00C8004808D207520A03196E2D6F2D742DD7
:100ADE005208031D732D742D822D0030C30000307B
:100AEE00C2000030C1000030C0005208031D802D2E
:100AFE00812D822DD001521C852D862D882DC21759
:100B0E008C2D7F30C8004808C2055236C8004808F0
:100B1E00C300D01F932D942D952DC31708004001AF
:100B2E0029088039AE002E08B3002935AE002E08F4
:100B3E00B900A81FA32DA42DA52D3914390803190A
:100B4E00A92DAA2DB92D390A031DAE2DAF2DB72D06
:100B5E000030A9000030A8000030A7000030A60029
:100B6E00A817C12D0030A9000030A8000030A70042
:100B7E000030A6002D088039AE002E08B3062D35A4
:100B8E00AE002E08B800AC1FCD2DCE2DCF2D3814B3
:100B9E0038080319D32DD42DE32D380A031DD82D73
:100BAE00D92DE12D0030AD000030AC000030AB008F
:100BBE000030AA00AC17EB2D0030AD000030AC00B9
:100BCE000030AB000030AA0038080319EF2DF02DCD
:100BDE00F52D3908031DF42DF52DFE2D0030A9003D
:100BEE000030A8000030A7000030A600EC2F260829
:100BFE00AE002E08F0002C088A31F52285317108DE
:100C0E004001BF007008BE003E08AE00AF01B0014B
:100C1E00B1013108B7003008B6002F08B5002E0814
:100C2E00B4003F08AE00AF01B001B1013108BD0004
:100C3E003008BC002F08BB002E08BA002708AE00F3
:100C4E002E08F0002B088A31F522853171084001FB
:100C5E00BF007008BE003E08AE00AF01B001B1018A
:100C6E002E08B4072F08B53D3008B63D3108B73D04
:100C7E003F08AE00AF01B001B1012E08BA072F0830
:100C8E00BB3D3008BC3D3108BD3D2808AE002E08E6
:100C9E00F0002A088A31F522853171084001BF0023
:100CAE007008BE003E08AE00AF01B001B1012E08C3
:100CBE00B4072F08B53D3008B63D3108B73D3F08A3
:100CCE00AE00AF01B001B1012E08BA072F08BB3D2F
:100CDE003008BC3D3108BD3D0830B435B50DB60DFC
:100CEE00B70D890B742E2708AE002E08F0002A08C7
:100CFE008A31F522853171084001BF007008BE00AF
:100D0E003E08B4073F08B53D0030B63DB73D260856
:100D1E00AE002E08F0002B088A31F52285317108BD
:100D2E004001BF007008BE003E08B4073F08B53D45
:100D3E000030B63DB73D0830B435B50DB60DB70D24
:100D4E00890BA32E2608AE002E08F0002A088A3141
:100D5E00F522853171084001BF007008BE003E08C3
:100D6E00B4073F08B53D0030B63DB73D2708AE008D
:100D7E002E08F0002C088A31F522853171084001C9
:100D8E00BF007008BE003E08BA073F08BB3D0030EA
:100D9E00BC3DBD3D2808AE002E08F0002B088A3160
:100DAE00F522853171084001BF007008BE003E0873
:100DBE00BA073F08BB3D0030BC3DBD3D2808AE0024
:100DCE002E08F0002C088A31F52285317108400179
:100DDE00BF007008BE003E08AE003F08AF00B00175
:100DEE00B1010830AE35AF0DB00DB10D890BF92E36
:100DFE002E08BA072F08BB3D3008BC3D3108BD3D5B
:100E0E003408AE003508AF003608B0003708B10020
:100E1E001830B136B00CAF0CAE0C890B102F2E085B
:100E2E00BA072F08BB3D3008BC3D3108BD3D083028
:100E3E00B435B50DB60DB70D890B1F2F3908380710
:100E4E00AE00AF01AF0D2E08823EBE00FF302F3D2B
:100E5E00BF00482F0130BA35BB0DBC0DBD0D890B3F
:100E6E00322FB71F3B2F3C2F3D2F3A140130B43594
:100E7E00B50DB60DB70D890B3E2FFF30BE07FF30F7
:100E8E00BF3DBC1F4B2F4C2F312FB801B71F502F1A
:100E9E00512F6D2FFF303405AE00FF303505AF00FA
:100EAE00FF303605B0007F303705B1003108300411
:100EBE002F042E040319642F652F682FB801B80A6A
:100ECE006D2F3A1C6B2F6C2F6D2F652F3808031961
:100EDE00712F722F9A2F0130BA070030BB3D0030B0
:100EEE00BC3D0030BD3D3D1C7D2F7E2F9A2F3A0814
:100EFE00AE003B08AF003C08B0003D08B100013029
:100F0E00B200B137B00CAF0CAE0CB20B882F31085B
:100F1E00BD003008BC002F08BB002E08BA000130FF
:100F2E00BE070030BF3D3F08803AAE0080302E0233
:100F3E00031DA32FFF303E02031CA62FA72FB12F98
:100F4E007F304001BD008030BC000030BB0000305F
:100F5E00BA00E02F40013F08803AAE0080302E02EA
:100F6E00031DBB2F01303E020318BE2FBF2FCA2F09
:100F7E0000304001BD000030BC000030BB0000302E
:100F8E00BA00B301E02F40013E08AE002E08B900B2
:100F9E00FF30BA05FF30BB057F30BC050030BD0504
:100FAE00391CDA2FDB2FDC2FBC173936AE002E089A
:100FBE00BD003308AE002E08BD043D08A9003C0854
:100FCE00A8003B08A7003A08A6000800410180319E
:100FDE0007208731C2004001EE01EF01A0308400EE
:100FEE0000308500223080310820873140018B315E
:100FFE00CB2B01340034003400340A340034003476
:10100E0000346434003400340034E83403340034E3
:10101E0000341034273400340034A03486340134C4
:10102E000034403442340F340034803496349834D3
:10103E0000340034E134F53405340034CA349A34C3
:10104E003B341A34003425346C3475342E34253444
:10105E0036342E3436346C347534003452346534B0
:10106E00673461346E3464346F3420340034533456
:10107E00753465346C346F3420344F346B34003433
:10108E00543461346E347134463475346C346C348B
:10109E0000344C346C3465346E3461346E346434E4
:1010AE006F340034F834A7341C343D347B34C234EE
:1010BE009E343B34E0340F34F8343E3455347634B9
:1010CE003D34003448343D34003454343D3400341F
:1010DE0008340034023400340C3402340134013448
:0410EE00053402348F
:101358008931D42189314301111408008931D421FC
:101368008931430111150800013041019D00E03029
:101378009E00080073087204710470040319C529DB
:10138800C629C8298030F30608008A31D422893159
:101398004E308D31842589318B31182389310800ED
:1013A80043010F19D829D929D42911081F39031D38
:1013B800DE29DF29D4290800F100F0013A30710252
:1013C8000318E729E829F02930307102031CED29B8
:1013D800EE29F029F001F00A700C0800F0008931BC
:1013E800D42189314E018D100D11700843018C00F4
:1013F8004E018D1C002A012AFC298D104301110879
:101408000800F1008931AC218A3141012C08893169
:10141800F2218A317108410142048931F2218A316D
:101428008931B2218A310800F30041012D08F20008
:101438007208F304730804388A3105228A31730864
:10144800FB398A3105228A318530890B292A000027
:101458000800F5004101AD017508F0398A311822FC
:101468008A317508F4000330F435FF3E031D382A2D
:101478007435F0398A3118228A310800F5004101A3
:10148800AD01AD0A7508F0398A3118228A3175081C
:10149800F4000330F435FF3E031D4E2A7435F0394D
:1014A8008A3118228A310800F901FA01692A760876
:1014B8007907840077087A3D850000088A3142223E
:1014C8008A310130F9070030FA3D7608790784003F
:1014D80077087A3D85001200031D732A742A5B2A57
:1014E8000800F401F501701C7A2A7B2A7F2A720809
:1014F800F4077308F53D0130F235F30D890B802AA6
:101508000130F136F00C890B852A70087104031D2F
:101518008E2A8F2A772A7508F1007408F0000800CF
:10152800F4000330F200720841019D057408F200CE
:101538000130F235FF3E031D9D2A7235F300730812
:101548009D043530890BA62A000041019D149D1881
:10155800AE2AAF2AAB2A1C08F1001B08F0000800CD
:1015680080304001D7065B08C3005A08C2005908FA
:10157800C1005808C0005708C7005608C6005508DB
:10158800C5005408C40083315E238A3140014308F2
:10159800D7004208D6004108D5004008D40008000A
:1015A800193043018D002830900091018F014001CE
:1015B800131713167E014313431208309C0007309B
:1015C8009E00013042018C0001308D000C307D01FD
:1015D800C6000E30C5004E018D100D114301901646
:1015E8000800F800F401F5017008F200F301720830
:1015F800F6007308F700781C022B032B072B7608DC
:10160800F4077708F53D0130F635F70D890B082BFF
:101618000310F80C7808031D122B132BFF2A7508EA
:10162800F1007408F00008006530F6008830F70013
:101638008A3158228B310830FB007B08F6000130D4
:101648008B313C238B316C30F6008830F7008A31BF
:1016580058228B31F601F60A02308B313C238B314C
:101668006930F6008830F7008A3158228B3108003B
:10167800F900562B7608BF3E8A312D228B31692B13
:101688007608933E8A312D228B31692B7608D33E1A
:101698008A312D228B31692B76087F3E8A312D22A3
:1016A8008B31692B7908F700F8017808003A03199B
:1016B8005E2B502B7708023A03193E2B013A031987
:1016C800442B073A03194A2B502B0800912B400151
:1016D8000E080C39031D712B722B912B4101B0019F
:1016E80040010E140830FB007B08F60002308B31F5
:1016F8003C238B314730F6008830F7008A31582276
:101708008B312930FC009630FB007F30890B8A2B07
:10171800FB0B8A2BFC0B8A2B0000410130030319B9
:10172800962B972B6B2B080040010E199C2B9F2B97
:1017380040018E17A12B40018E138E19A42BA72BC5
:1017480040010E17A92B40010E130C300E05FB00AB
:101758000C307B06031DB12BB22BCA2BFE30FB00CD
:101768007B088E054101B001B00A0830FB007B08F8
:10177800F60002308B313C238B315030F600883034
:10178800F7008A3158228B3140018E1408000C3042
:10179800400194007E01CE01F3304001EC006C085A
:1017A8008E0421304001ED007830EC009830890B30
:1017B800DB2BEC0BDB2BED0BDB2B00000F304001A0
:1017C800EC006C088E05503093003F309200FF30DB
:1017D8007E01B8008931B8218B318931C9218B311B
:1017E80080319E208B3180310E208B318B319823B4
:1017F8008B318B316A238B318C315E248B311530E0
:101808004001ED004B30EC00BE30890B092CEC0B8D
:10181800092CED0B092C0000F42B80310228400123
:10182800230822042104200403191B2C1C2C552CEA
:10183800A901A90A2A2C0130A035A10DA20DA30DDA
:10184800890B202C0130A8002808A907A31F2D2CDC
:101858002E2C1F2C23082702031D3C2C22082602AD
:10186800031D3C2C21082502031D3C2C20082402C2
:10187800031C3F2C402C482C2008A4022108A53B1F
:101888002208A63B2308A73B0130A336A20CA10CD3
:10189800A00C890B492C0130A902031D542C552C8E
:1018A8002E2C2708A3002608A2002508A10024083A
:1018B800A000080041012308F3002208F2002108D3
:1018C800F1002008F0004130F700D030F600003079
:1018D800F5000030F4008E310D268C31031C752C78
:1018E800762CA32C41012708F3002608F2002508CE
:1018F800F1002408F0004030F7000030F600003016
:10190800F5000030F4008E310D268C31031C8D2C2F
:101918008E2CA32CFD30FC007C0840018E0508307D
:10192800FC007C08F60002308B313C238C313530CA
:10193800F6008830F7008A3158228C31B42C4001E7
:101948008E140830FC007C08F60002308B313C23F2
:101958008C313E30F6008830F7008A3158228C31BD
:1019680008000030FC000030FB000030FA000030B6
:10197800F90073087204710470040319C42CC52C8F
:10198800062DFD01FD0AD32C0130F035F10DF20DC5
:10199800F30D890BC92C0130F8007808FD07F31FF7
:1019A800D62CD72CC82C0130F935FA0DFB0DFC0DBF
:1019B800890BD82C73087702031DEC2C7208760269
:1019C800031DEC2C71087502031DEC2C70087402C1
:1019D800031CEF2CF02CF92C7008F4027108F53B6D
:1019E8007208F63B7308F73B79140130F336F20CB2
:1019F800F10CF00C890BFA2C0130FD02031D052DAA
:101A0800062DD72C7C08F3007B08F2007A08F10039
:101A18007908F000080003104001420D430DC4008E
:101A28004408CA004A08031D1A2D1B2D242D003016
:101A3800C3000030C2000030C1000030C000832D58
:101A48004008C4004108C5004208C6004308C70052
:101A58001F30C736C60CC50CC40C890B2D2D440885
:101A6800C8004808C900C217FF30C005FF30C105CB
:101A7800FF30C2050030C3059630CA02CA1F452D83
:101A8800462D5E2D4A08803A973E03184C2D4D2D61
:101A98004E2D1B2D0130C336C20CC10CC00C890B56
:101AA8004F2D0130C4004408CA07031D5C2D5D2D6D
:101AB8004E2D732D20304A02031C632D642D6E2D8C
:101AC8001B2D0130C035C10DC20DC30D890B662D0C
:101AD8000130CA024A08031D722D732D652D49086D
:101AE8000319772D782D832DC009C109C209C309AF
:101AF800C00A0319C10A0319C20A0319C30A080054
:101B0800F8007808F60076084101AC008931AC216C
:101B18008D3100308A3105228D318931B2218D31E4
:101B28000230F7003830F600AD30890B992DF60BEE
:101B3800992DF70B992D000003308A312D228D3114
:101B48003430F600F230890BA72DF60BA72D0330A1
:101B58008A312D228D313430F600F230890BB22DC6
:101B6800F60BB22D03308A312D228D313430F60038
:101B7800F230890BBD2DF60BBD2D02308A312D2296
:101B88008D313430F600F230890BC82DF60BC82D94
:101B980028308A312D228D310330F7000830F600C5
:101BA8007730890BD52DF60BD52DF70BD52D0000E9
:101BB8000C308A312D228D310330F7000830F600C1
:101BC8007730890BE52DF60BE52DF70BE52D000099
:101BD80001308A312D228D310330F7000830F600AC
:101BE8007730890BF52DF60BF52DF70BF52D000049
:101BF80006308A312D228D310330F7000830F60087
:101C08007730890B052EF60B052EF70B052E0000F5
:101C1800080000307005F80000307105F9008030C8
:101C28007205FA007F307305FB007B087A0479049B
:101C38007804031D202E212E292E0030F3000030B9
:101C4800F2000030F1000030F00000307405F800B8
:101C580000307505F90080307605FA007F30770589
:101C6800FB007B087A0479047804031D3C2E3D2E82
:101C7800452E0030F7000030F6000030F500003047
:101C8800F400F31F482E492E612E0030F800003072
:101C9800F9000030FA008030FB007008F802710883
:101CA800F93B7208FA3B7308FB3B7B08F3007A08A0
:101CB800F2007908F1007808F000F71F642E652E0D
:101CC8007D2E0030F8000030F9000030FA00803036
:101CD800FB007408F8027508F93B7608FA3B7708A8
:101CE800FB3B7B08F7007A08F6007908F5007808CE
:101CF800F4008030F3068030F70677087302031D7E
:101D08008F2E76087202031D8F2E75087102031D2F
:101D18008F2E740870020318922E932E952E03109E
:101D2800962E031408004001A000200803199D2ED8
:101D38009E2EB22EF81FA12EA22EB22E7509A20039
:101D48007609A3007709A4007809A500A20A031957
:101D5800A30A0319A40A0319A50ABA2E7808A5002C
:101D68007708A4007608A3007508A200780877040D
:101D780076047504031DC12EC22ECB2E0030F80048
:101D88000030F7000030F6000030F500432F9630A1
:101D9800F9007908A100DB2E0130F9007908A107C4
:101DA8000130A536A40CA30CA20C890BD52EFE304D
:101DB8002505031DE02EE12ED02EF52E0130F90069
:101DC8007908A1070130A2070030A33D0030A43DE7
:101DD8000030A53D0130A536A40CA30CA20C890B3C
:101DE800EF2EFF302505031DFA2EFB2EE22E052FC0
:101DF8000130A1020130A235A30DA40DA50D890B58
:101E0800FF2EA41B082F092F0F2F023021020318C1
:101E18000E2F0F2FFC2E2118122F132F1B2FFF30E0
:101E2800A205FF30A3057F30A405FF30A5050310E8
:101E3800A10C2108F900FA01FB01FC011830F93561
:101E4800FA0DFB0DFC0D890B232F7908A2047A08E3
:101E5800A3047B08A4047C08A50420080319352FD3
:101E6800362F3B2FF81F392F3A2F3B2FA517250860
:101E7800F8002408F7002308F6002208F5000800F7
:101E8800B1304001E1006108EA005F08F3005E0834
:101E9800F2005D08F1005C08F0000030F700003047
:101EA800F6000030F5000030F4008E310D268F3139
:101EB80003185F2F602F802F2D304001E1006A0842
:101EC80086008701610881000130E1006108EA07A6
:101ED8005F08F3005E08F2005D08F1005C08F0009E
:101EE8008931BE218F3173084001DF007208DE009E
:101EF8007108DD007008DC0040015F08C3005E085F
:101F0800C2005D08C1005C08C0008D310F258F310B
:101F180040014308E9004208E8004108E70040089A
:101F2800E6006908F8006808F7006708F600660820
:101F3800F50000308E3197268F3178084001D700A0
:101F48007708D6007608D5007508D4005F08DB004E
:101F58005E08DA005D08D9005C08D8008A31B4222E
:101F68008F3140015708DF005608DE005508DD00B4
:101F78005408DC005F08AD005E08AC005D08AB00EB
:101F88005C08AA004930A9007430A8002430A700D2
:101F98000030A600853196258F3140012908C300FD
:101FA8002808C2002708C1002608C0008D310F2567
:101FB8008F3140014308E5004208E4004108E3008E
:101FC8004008E2002A30AA008830AB006908AF0058
:101FD8006808AE006708AD006608AC006508B30085
:101FE8006408B2006308B1006208B0006A08813171
:081FF80067218F31B1300800B0
:020000040001F9
:04000E00CD3FE63FBD
:04001400FF1FFF3F8C
:00000001FF
